{
  "contractName": "Vote",
  "abi": [
    {
      "constant": false,
      "inputs": [],
      "name": "getValue",
      "outputs": [
        {
          "name": "",
          "type": "bytes32"
        }
      ],
      "payable": false,
      "stateMutability": "nonpayable",
      "type": "function"
    },
    {
      "constant": false,
      "inputs": [
        {
          "name": "name",
          "type": "bytes32"
        }
      ],
      "name": "getVotesForCandidate",
      "outputs": [
        {
          "name": "",
          "type": "uint256"
        }
      ],
      "payable": false,
      "stateMutability": "nonpayable",
      "type": "function"
    },
    {
      "constant": true,
      "inputs": [
        {
          "name": "",
          "type": "uint256"
        }
      ],
      "name": "candidates",
      "outputs": [
        {
          "name": "",
          "type": "bytes32"
        }
      ],
      "payable": false,
      "stateMutability": "view",
      "type": "function"
    },
    {
      "constant": false,
      "inputs": [],
      "name": "getNumCandidates",
      "outputs": [
        {
          "name": "",
          "type": "uint256"
        }
      ],
      "payable": false,
      "stateMutability": "nonpayable",
      "type": "function"
    },
    {
      "constant": false,
      "inputs": [
        {
          "name": "voterID",
          "type": "uint256"
        }
      ],
      "name": "sendValue",
      "outputs": [
        {
          "name": "",
          "type": "bool"
        }
      ],
      "payable": false,
      "stateMutability": "nonpayable",
      "type": "function"
    },
    {
      "constant": false,
      "inputs": [
        {
          "name": "voterID",
          "type": "bytes32"
        }
      ],
      "name": "eligible",
      "outputs": [
        {
          "name": "",
          "type": "bool"
        }
      ],
      "payable": false,
      "stateMutability": "nonpayable",
      "type": "function"
    },
    {
      "constant": false,
      "inputs": [
        {
          "name": "n",
          "type": "uint8"
        }
      ],
      "name": "getCandidate",
      "outputs": [
        {
          "name": "",
          "type": "bytes32"
        }
      ],
      "payable": false,
      "stateMutability": "nonpayable",
      "type": "function"
    },
    {
      "constant": false,
      "inputs": [
        {
          "name": "voterID",
          "type": "bytes32"
        },
        {
          "name": "name",
          "type": "bytes32"
        }
      ],
      "name": "sendVote",
      "outputs": [
        {
          "name": "",
          "type": "bool"
        }
      ],
      "payable": false,
      "stateMutability": "nonpayable",
      "type": "function"
    },
    {
      "inputs": [
        {
          "name": "args",
          "type": "bytes32[]"
        }
      ],
      "payable": false,
      "stateMutability": "nonpayable",
      "type": "constructor"
    }
  ],
  "bytecode": "0x60606040526000600102600390600019169055341561001d57600080fd5b60405161059838038061059883398101604052808051820191905050806001908051906020019061004f929190610109565b50600a600260006001600081548110151561006657fe5b9060005260206000209001546000191660001916815260200190815260200160002081905550600f600260006001808154811015156100a157fe5b9060005260206000209001546000191660001916815260200190815260200160002081905550601460026000600160028154811015156100dd57fe5b906000526020600020900154600019166000191681526020019081526020016000208190555050610181565b82805482825590600052602060002090810192821561014b579160200282015b8281111561014a578251829060001916905591602001919060010190610129565b5b509050610158919061015c565b5090565b61017e91905b8082111561017a576000816000905550600101610162565b5090565b90565b610408806101906000396000f30060606040526004361061008e576000357c0100000000000000000000000000000000000000000000000000000000900463ffffffff16806320965255146100935780632f5bde23146100c45780633477ee2e146100ff5780635c06b06e1461013e5780636756326814610167578063820f5368146101a2578063cde9370f146101e1578063e72b823b14610223575b600080fd5b341561009e57600080fd5b6100a661026f565b60405180826000191660001916815260200191505060405180910390f35b34156100cf57600080fd5b6100e9600480803560001916906020019091905050610279565b6040518082815260200191505060405180910390f35b341561010a57600080fd5b610120600480803590602001909190505061029e565b60405180826000191660001916815260200191505060405180910390f35b341561014957600080fd5b6101516102c2565b6040518082815260200191505060405180910390f35b341561017257600080fd5b61018860048080359060200190919050506102cf565b604051808215151515815260200191505060405180910390f35b34156101ad57600080fd5b6101c76004808035600019169060200190919050506102d6565b604051808215151515815260200191505060405180910390f35b34156101ec57600080fd5b610205600480803560ff1690602001909190505061031f565b60405180826000191660001916815260200191505060405180910390f35b341561022e57600080fd5b61025560048080356000191690602001909190803560001916906020019091905050610346565b604051808215151515815260200191505060405180910390f35b6000600354905090565b6000600260008360001916600019168152602001908152602001600020549050919050565b6001818154811015156102ad57fe5b90600052602060002090016000915090505481565b6000600180549050905090565b6000919050565b600060011515600080846000191660001916815260200190815260200160002060009054906101000a900460ff1615151415610315576000905061031a565b600190505b919050565b600060018260ff1681548110151561033357fe5b9060005260206000209001549050919050565b6000610351836102d6565b151561036057600090506103d6565b60016002600084600019166000191681526020019081526020016000205401600260008460001916600019168152602001908152602001600020819055506001600080856000191660001916815260200190815260200160002060006101000a81548160ff021916908315150217905550600190505b929150505600a165627a7a72305820a664873a92520c2e9ab61036ab1047009c50f522ee2b6cf601c30c88e94f13c30029",
  "source": "pragma solidity ^0.4.4;\n\ncontract Vote{\n    \n    //maps each private key to a boolean (has this key voted yet)\n    mapping (bytes32 => bool) hasVoted;\n    \n    //array of candidate strings\n    bytes32[] public candidates;\n    \n    //maps each candidate name to an integer holding their votes\n    mapping (bytes32 => uint) votes;\n        \n    //Constructor takes in an array of candidates\n    function Vote(bytes32[] args){\n        candidates = args;\n        votes[candidates[0]] = 10;\n        votes[candidates[1]] = 15;\n        votes[candidates[2]] = 20;\n    }\n    \n    /* --- PUBLIC FUNCTIONS --- */\n    \n    //returns the number of candidates\n    function getNumCandidates() public returns (uint256) {\n        return candidates.length;\n    }    \n    \n    //returns the name of the nth candidate\n    function getCandidate(uint8 n) public returns (bytes32){\n        return candidates[n];\n    }\n    \n    //returns the number of votes this candidate has recieved\n    function getVotesForCandidate(bytes32 name) public returns (uint){\n        return votes[name];\n    }\n    \n    //returns true if vote was successful, false otherwise\n    function sendVote(bytes32 voterID, bytes32 name) public returns (bool){\n        if (!eligible(voterID)){\n            return false;\n        }\n        \n        votes[name] = votes[name] + 1;\n        \n        hasVoted[voterID] = true;\n        return true;\n    }\n    \n    bytes32 qName = 0;\n    \n    function sendValue(uint voterID) public returns (bool){\n        //ID = voterID;\n    }\n    \n    function getValue() public returns (bytes32){\n        return qName;\n    }\n    \n    //returns true if the voterID is eligible to cast a vote\n    function eligible(bytes32 voterID) public returns (bool){\n        if(hasVoted[voterID] == true){\n            return false;\n        }\n        return true;\n    }\n    \n}",
  "sourcePath": "/Users/michaelzman/Documents/workspace/devote/contracts/Vote.sol",
  "compiler": {
    "name": "solc",
    "version": "0.4.18+commit.9cf6e910.Emscripten.clang"
  },
  "schemaVersion": "1.0.1",
  "updatedAt": "2017-11-11T06:53:11.875Z"
}