{
  "contractName": "Vote",
  "abi": [
    {
      "constant": false,
      "inputs": [
        {
          "name": "name",
          "type": "bytes32"
        }
      ],
      "name": "getVotesForCandidate",
      "outputs": [
        {
          "name": "",
          "type": "uint256"
        }
      ],
      "payable": false,
      "stateMutability": "nonpayable",
      "type": "function"
    },
    {
      "constant": true,
      "inputs": [
        {
          "name": "",
          "type": "uint256"
        }
      ],
      "name": "candidates",
      "outputs": [
        {
          "name": "",
          "type": "bytes32"
        }
      ],
      "payable": false,
      "stateMutability": "view",
      "type": "function"
    },
    {
      "constant": false,
      "inputs": [],
      "name": "getNumCandidates",
      "outputs": [
        {
          "name": "",
          "type": "uint256"
        }
      ],
      "payable": false,
      "stateMutability": "nonpayable",
      "type": "function"
    },
    {
      "constant": false,
      "inputs": [],
      "name": "validVoter",
      "outputs": [
        {
          "name": "",
          "type": "bool"
        }
      ],
      "payable": false,
      "stateMutability": "nonpayable",
      "type": "function"
    },
    {
      "constant": false,
      "inputs": [
        {
          "name": "n",
          "type": "uint8"
        }
      ],
      "name": "getCandidate",
      "outputs": [
        {
          "name": "",
          "type": "bytes32"
        }
      ],
      "payable": false,
      "stateMutability": "nonpayable",
      "type": "function"
    },
    {
      "constant": false,
      "inputs": [
        {
          "name": "name",
          "type": "bytes32"
        }
      ],
      "name": "sendVote",
      "outputs": [
        {
          "name": "",
          "type": "bool"
        }
      ],
      "payable": false,
      "stateMutability": "nonpayable",
      "type": "function"
    },
    {
      "constant": false,
      "inputs": [],
      "name": "eligible",
      "outputs": [
        {
          "name": "",
          "type": "bool"
        }
      ],
      "payable": false,
      "stateMutability": "nonpayable",
      "type": "function"
    },
    {
      "constant": false,
      "inputs": [],
      "name": "caller",
      "outputs": [
        {
          "name": "",
          "type": "address"
        }
      ],
      "payable": false,
      "stateMutability": "nonpayable",
      "type": "function"
    },
    {
      "inputs": [
        {
          "name": "args",
          "type": "bytes32[]"
        },
        {
          "name": "addresses",
          "type": "address[]"
        }
      ],
      "payable": false,
      "stateMutability": "nonpayable",
      "type": "constructor"
    }
  ],
  "bytecode": "0x6060604052341561000f57600080fd5b6040516105fe3803806105fe8339810160405280805182019190602001805182019190505060008090505b81518110156100ca577fffffffffffffffffffffffffffffffffffffffffffffffffffffffffffffffff600080848481518110151561007557fe5b9060200190602002015173ffffffffffffffffffffffffffffffffffffffff1673ffffffffffffffffffffffffffffffffffffffff16815260200190815260200160002081905550808060010191505061003a565b82600190805190602001906100e09291906100e9565b50505050610161565b82805482825590600052602060002090810192821561012b579160200282015b8281111561012a578251829060001916905591602001919060010190610109565b5b509050610138919061013c565b5090565b61015e91905b8082111561015a576000816000905550600101610142565b5090565b90565b61048e806101706000396000f30060606040526004361061008e576000357c0100000000000000000000000000000000000000000000000000000000900463ffffffff1680632f5bde23146100935780633477ee2e146100ce5780635c06b06e1461010d5780638a4e183814610136578063cde9370f14610163578063cf1eee18146101a5578063d832d92f146101e4578063fc9c8d3914610211575b600080fd5b341561009e57600080fd5b6100b8600480803560001916906020019091905050610266565b6040518082815260200191505060405180910390f35b34156100d957600080fd5b6100ef600480803590602001909190505061028b565b60405180826000191660001916815260200191505060405180910390f35b341561011857600080fd5b6101206102af565b6040518082815260200191505060405180910390f35b341561014157600080fd5b6101496102bc565b604051808215151515815260200191505060405180910390f35b341561016e57600080fd5b610187600480803560ff16906020019091905050610315565b60405180826000191660001916815260200191505060405180910390f35b34156101b057600080fd5b6101ca60048080356000191690602001909190505061033c565b604051808215151515815260200191505060405180910390f35b34156101ef57600080fd5b6101f76103e1565b604051808215151515815260200191505060405180910390f35b341561021c57600080fd5b61022461045a565b604051808273ffffffffffffffffffffffffffffffffffffffff1673ffffffffffffffffffffffffffffffffffffffff16815260200191505060405180910390f35b6000600260008360001916600019168152602001908152602001600020549050919050565b60018181548110151561029a57fe5b90600052602060002090016000915090505481565b6000600180549050905090565b6000806000803373ffffffffffffffffffffffffffffffffffffffff1673ffffffffffffffffffffffffffffffffffffffff16815260200190815260200160002054141561030d5760009050610312565b600190505b90565b600060018260ff1681548110151561032957fe5b9060005260206000209001549050919050565b60006103466103e1565b151561035557600090506103dc565b600160026000846000191660001916815260200190815260200160002054016002600084600019166000191681526020019081526020016000208190555060016000803373ffffffffffffffffffffffffffffffffffffffff1673ffffffffffffffffffffffffffffffffffffffff16815260200190815260200160002081905550600190505b919050565b60007fffffffffffffffffffffffffffffffffffffffffffffffffffffffffffffffff6000803373ffffffffffffffffffffffffffffffffffffffff1673ffffffffffffffffffffffffffffffffffffffff1681526020019081526020016000205414156104525760019050610457565b600090505b90565b6000339050905600a165627a7a72305820fa0ae3349fbac7623cc525c8ab0c20d5fec36098f101a075d065fc96d0493bf90029",
  "source": "pragma solidity ^0.4.4;\n\ncontract Vote{\n    //maps each address to a boolean (has this key voted yet)\n    //mapping (bytes32 => bool) hasVoted;\n    mapping(address => int) voterLog;\n    \n    //array of candidate strings\n    bytes32[] public candidates;\n    \n    //maps each candidate name to an integer holding their votes\n    mapping (bytes32 => uint) votes;\n        \n    //Constructor takes in an array of candidates\n    function Vote(bytes32[] args, address[] addresses){\n        for(uint i = 0; i < addresses.length; i++){\n            voterLog[addresses[i]] = -1;\n        }\n        candidates = args;\n    }\n    \n    /* --- PUBLIC FUNCTIONS --- */\n    \n    //returns the number of candidates\n    function getNumCandidates() public returns (uint256) {\n        return candidates.length;\n    }    \n    \n    //returns the name of the nth candidate\n    function getCandidate(uint8 n) public returns (bytes32){\n        return candidates[n];\n    }\n    \n    //returns the number of votes this candidate has recieved\n    function getVotesForCandidate(bytes32 name) public returns (uint){\n        return votes[name];\n    }\n    \n    //returns true if vote was successful, false otherwise\n    function sendVote(bytes32 name) public returns (bool){\n        if (!eligible()){\n            return false;\n        }\n        \n        votes[name] = votes[name] + 1;\n        voterLog[msg.sender] = 1;\n        return true;\n    }\n    \n    //returns true if the address is eligible to cast a vote\n    function eligible() public returns (bool){\n        if(voterLog[msg.sender] == -1){\n            return true;\n        }\n        return false;\n    }\n    \n    //returns true if the voter address is valid (regardless of if they have already voted)\n    function validVoter() public returns(bool){\n        if(voterLog[msg.sender] == 0){\n            return false;\n        }\n        return true;\n    }\n    \n    //returns the address of the caller\n    function caller() public returns (address){\n        return msg.sender;\n    }   \n}",
  "sourcePath": "/Users/michaelzman/Documents/workspace/Devote/contracts/Vote.sol",
  "compiler": {
    "name": "solc",
    "version": "0.4.18+commit.9cf6e910.Emscripten.clang"
  },
  "schemaVersion": "1.0.1",
  "updatedAt": "2017-11-12T09:06:38.676Z"
}