{
  "contractName": "Vote",
  "abi": [
    {
      "constant": false,
      "inputs": [
        {
          "name": "name",
          "type": "bytes32"
        }
      ],
      "name": "getVotesForCandidate",
      "outputs": [
        {
          "name": "",
          "type": "uint256"
        }
      ],
      "payable": false,
      "stateMutability": "nonpayable",
      "type": "function"
    },
    {
      "constant": true,
      "inputs": [
        {
          "name": "",
          "type": "uint256"
        }
      ],
      "name": "candidates",
      "outputs": [
        {
          "name": "",
          "type": "bytes32"
        }
      ],
      "payable": false,
      "stateMutability": "view",
      "type": "function"
    },
    {
      "constant": false,
      "inputs": [],
      "name": "getNumCandidates",
      "outputs": [
        {
          "name": "",
          "type": "uint256"
        }
      ],
      "payable": false,
      "stateMutability": "nonpayable",
      "type": "function"
    },
    {
      "constant": false,
      "inputs": [
        {
          "name": "n",
          "type": "uint8"
        }
      ],
      "name": "getCandidate",
      "outputs": [
        {
          "name": "",
          "type": "bytes32"
        }
      ],
      "payable": false,
      "stateMutability": "nonpayable",
      "type": "function"
    },
    {
      "constant": false,
      "inputs": [
        {
          "name": "name",
          "type": "bytes32"
        }
      ],
      "name": "sendVote",
      "outputs": [
        {
          "name": "",
          "type": "bool"
        }
      ],
      "payable": false,
      "stateMutability": "nonpayable",
      "type": "function"
    },
    {
      "constant": false,
      "inputs": [],
      "name": "eligible",
      "outputs": [
        {
          "name": "",
          "type": "bool"
        }
      ],
      "payable": false,
      "stateMutability": "nonpayable",
      "type": "function"
    },
    {
      "inputs": [
        {
          "name": "args",
          "type": "bytes32[]"
        },
        {
          "name": "addresses",
          "type": "address[]"
        }
      ],
      "payable": false,
      "stateMutability": "nonpayable",
      "type": "constructor"
    }
  ],
  "bytecode": "0x6060604052341561000f57600080fd5b6040516105053803806105058339810160405280805182019190602001805182019190505060008090505b81518110156100ca577fffffffffffffffffffffffffffffffffffffffffffffffffffffffffffffffff600080848481518110151561007557fe5b9060200190602002015173ffffffffffffffffffffffffffffffffffffffff1673ffffffffffffffffffffffffffffffffffffffff16815260200190815260200160002081905550808060010191505061003a565b82600190805190602001906100e09291906100e9565b50505050610161565b82805482825590600052602060002090810192821561012b579160200282015b8281111561012a578251829060001916905591602001919060010190610109565b5b509050610138919061013c565b5090565b61015e91905b8082111561015a576000816000905550600101610142565b5090565b90565b610395806101706000396000f300606060405260043610610078576000357c0100000000000000000000000000000000000000000000000000000000900463ffffffff1680632f5bde231461007d5780633477ee2e146100b85780635c06b06e146100f7578063cde9370f14610120578063cf1eee1814610162578063d832d92f146101a1575b600080fd5b341561008857600080fd5b6100a26004808035600019169060200190919050506101ce565b6040518082815260200191505060405180910390f35b34156100c357600080fd5b6100d960048080359060200190919050506101f3565b60405180826000191660001916815260200191505060405180910390f35b341561010257600080fd5b61010a610217565b6040518082815260200191505060405180910390f35b341561012b57600080fd5b610144600480803560ff16906020019091905050610224565b60405180826000191660001916815260200191505060405180910390f35b341561016d57600080fd5b61018760048080356000191690602001909190505061024b565b604051808215151515815260200191505060405180910390f35b34156101ac57600080fd5b6101b46102f0565b604051808215151515815260200191505060405180910390f35b6000600260008360001916600019168152602001908152602001600020549050919050565b60018181548110151561020257fe5b90600052602060002090016000915090505481565b6000600180549050905090565b600060018260ff1681548110151561023857fe5b9060005260206000209001549050919050565b60006102556102f0565b151561026457600090506102eb565b600160026000846000191660001916815260200190815260200160002054016002600084600019166000191681526020019081526020016000208190555060016000803373ffffffffffffffffffffffffffffffffffffffff1673ffffffffffffffffffffffffffffffffffffffff16815260200190815260200160002081905550600190505b919050565b60007fffffffffffffffffffffffffffffffffffffffffffffffffffffffffffffffff6000803373ffffffffffffffffffffffffffffffffffffffff1673ffffffffffffffffffffffffffffffffffffffff1681526020019081526020016000205414156103615760019050610366565b600090505b905600a165627a7a723058201641d3c72298bf9d0aed01125cf10585657c3f16f6a3a3de9d48b322887433b70029",
  "source": "pragma solidity ^0.4.4;\n\ncontract Vote{\n    \n    //maps each address to a boolean (has this key voted yet)\n    //mapping (bytes32 => bool) hasVoted;\n    mapping(address => int) voterLog;\n    \n    \n    //array of candidate strings\n    bytes32[] public candidates;\n    \n    //maps each candidate name to an integer holding their votes\n    mapping (bytes32 => uint) votes;\n        \n    \n    //Constructor takes in an array of candidates\n    function Vote(bytes32[] args, address[] addresses){\n        for(uint i = 0; i < addresses.length; i++){\n            voterLog[addresses[i]] = -1;\n        }\n        candidates = args;\n    }\n    \n    /* --- PUBLIC FUNCTIONS --- */\n    \n    //returns the number of candidates\n    function getNumCandidates() public returns (uint256) {\n        return candidates.length;\n    }    \n    \n    //returns the name of the nth candidate\n    function getCandidate(uint8 n) public returns (bytes32){\n        return candidates[n];\n    }\n    \n    //returns the number of votes this candidate has recieved\n    function getVotesForCandidate(bytes32 name) public returns (uint){\n        return votes[name];\n    }\n    \n    //returns true if vote was successful, false otherwise\n    function sendVote(bytes32 name) public returns (bool){\n        if (!eligible()){\n            return false;\n        }\n        \n        votes[name] = votes[name] + 1;\n        voterLog[msg.sender] = 1;\n        return true;\n    }\n    \n    //returns true if the voterID is eligible to cast a vote\n    function eligible() public returns (bool){\n        if(voterLog[msg.sender] == -1){\n            return true;\n        }\n        return false;\n    }   \n}",
  "sourcePath": "/Users/michaelzman/Documents/workspace/Devote/contracts/Vote.sol",
  "compiler": {
    "name": "solc",
    "version": "0.4.18+commit.9cf6e910.Emscripten.clang"
  },
  "schemaVersion": "1.0.1",
  "updatedAt": "2017-11-11T18:09:07.448Z"
}